{
  "_format": "hh-sol-artifact-1",
  "contractName": "Tokens",
  "sourceName": "contracts/Token.sol",
  "abi": [
    {
      "inputs": [],
      "stateMutability": "nonpayable",
      "type": "constructor"
    },
    {
      "anonymous": false,
      "inputs": [
        {
          "indexed": true,
          "internalType": "address",
          "name": "owner",
          "type": "address"
        },
        {
          "indexed": true,
          "internalType": "address",
          "name": "spender",
          "type": "address"
        },
        {
          "indexed": false,
          "internalType": "uint256",
          "name": "value",
          "type": "uint256"
        }
      ],
      "name": "Approval",
      "type": "event"
    },
    {
      "anonymous": false,
      "inputs": [
        {
          "indexed": true,
          "internalType": "address",
          "name": "from",
          "type": "address"
        },
        {
          "indexed": true,
          "internalType": "address",
          "name": "to",
          "type": "address"
        },
        {
          "indexed": false,
          "internalType": "uint256",
          "name": "value",
          "type": "uint256"
        }
      ],
      "name": "Transfer",
      "type": "event"
    },
    {
      "inputs": [
        {
          "internalType": "address",
          "name": "owner",
          "type": "address"
        },
        {
          "internalType": "address",
          "name": "spender",
          "type": "address"
        }
      ],
      "name": "allowance",
      "outputs": [
        {
          "internalType": "uint256",
          "name": "",
          "type": "uint256"
        }
      ],
      "stateMutability": "view",
      "type": "function"
    },
    {
      "inputs": [
        {
          "internalType": "address",
          "name": "spender",
          "type": "address"
        },
        {
          "internalType": "uint256",
          "name": "amount",
          "type": "uint256"
        }
      ],
      "name": "approve",
      "outputs": [
        {
          "internalType": "bool",
          "name": "",
          "type": "bool"
        }
      ],
      "stateMutability": "nonpayable",
      "type": "function"
    },
    {
      "inputs": [
        {
          "internalType": "address",
          "name": "account",
          "type": "address"
        }
      ],
      "name": "balanceOf",
      "outputs": [
        {
          "internalType": "uint256",
          "name": "",
          "type": "uint256"
        }
      ],
      "stateMutability": "view",
      "type": "function"
    },
    {
      "inputs": [],
      "name": "decimals",
      "outputs": [
        {
          "internalType": "uint8",
          "name": "",
          "type": "uint8"
        }
      ],
      "stateMutability": "view",
      "type": "function"
    },
    {
      "inputs": [
        {
          "internalType": "address",
          "name": "spender",
          "type": "address"
        },
        {
          "internalType": "uint256",
          "name": "subtractedValue",
          "type": "uint256"
        }
      ],
      "name": "decreaseAllowance",
      "outputs": [
        {
          "internalType": "bool",
          "name": "",
          "type": "bool"
        }
      ],
      "stateMutability": "nonpayable",
      "type": "function"
    },
    {
      "inputs": [
        {
          "internalType": "address",
          "name": "spender",
          "type": "address"
        },
        {
          "internalType": "uint256",
          "name": "addedValue",
          "type": "uint256"
        }
      ],
      "name": "increaseAllowance",
      "outputs": [
        {
          "internalType": "bool",
          "name": "",
          "type": "bool"
        }
      ],
      "stateMutability": "nonpayable",
      "type": "function"
    },
    {
      "inputs": [],
      "name": "initSupply",
      "outputs": [
        {
          "internalType": "uint256",
          "name": "",
          "type": "uint256"
        }
      ],
      "stateMutability": "view",
      "type": "function"
    },
    {
      "inputs": [],
      "name": "name",
      "outputs": [
        {
          "internalType": "string",
          "name": "",
          "type": "string"
        }
      ],
      "stateMutability": "view",
      "type": "function"
    },
    {
      "inputs": [],
      "name": "symbol",
      "outputs": [
        {
          "internalType": "string",
          "name": "",
          "type": "string"
        }
      ],
      "stateMutability": "view",
      "type": "function"
    },
    {
      "inputs": [],
      "name": "totalSupply",
      "outputs": [
        {
          "internalType": "uint256",
          "name": "",
          "type": "uint256"
        }
      ],
      "stateMutability": "view",
      "type": "function"
    },
    {
      "inputs": [
        {
          "internalType": "address",
          "name": "recipient",
          "type": "address"
        },
        {
          "internalType": "uint256",
          "name": "amount",
          "type": "uint256"
        }
      ],
      "name": "transfer",
      "outputs": [
        {
          "internalType": "bool",
          "name": "",
          "type": "bool"
        }
      ],
      "stateMutability": "nonpayable",
      "type": "function"
    },
    {
      "inputs": [
        {
          "internalType": "address",
          "name": "sender",
          "type": "address"
        },
        {
          "internalType": "address",
          "name": "recipient",
          "type": "address"
        },
        {
          "internalType": "uint256",
          "name": "amount",
          "type": "uint256"
        }
      ],
      "name": "transferFrom",
      "outputs": [
        {
          "internalType": "bool",
          "name": "",
          "type": "bool"
        }
      ],
      "stateMutability": "nonpayable",
      "type": "function"
    }
  ],
  "bytecode": "0x60806040526d105ae116d200cbd3a8e11e0000006005553480156200002357600080fd5b506040518060400160405280600d81526020016c20902a3434b932102a37b5b2b760991b8152506040518060400160405280600381526020016210551560ea1b81525081600390805190602001906200007e92919062000199565b5080516200009490600490602084019062000199565b505050620000ab33600554620000b160201b60201c565b620002a3565b6001600160a01b0382166200010c5760405162461bcd60e51b815260206004820152601f60248201527f45524332303a206d696e7420746f20746865207a65726f206164647265737300604482015260640160405180910390fd5b80600260008282546200012091906200023f565b90915550506001600160a01b038216600090815260208190526040812080548392906200014f9084906200023f565b90915550506040518181526001600160a01b038316906000907fddf252ad1be2c89b69c2b068fc378daa952ba7f163c4a11628f55a4df523b3ef9060200160405180910390a35050565b828054620001a79062000266565b90600052602060002090601f016020900481019282620001cb576000855562000216565b82601f10620001e657805160ff191683800117855562000216565b8280016001018555821562000216579182015b8281111562000216578251825591602001919060010190620001f9565b506200022492915062000228565b5090565b5b8082111562000224576000815560010162000229565b600082198211156200026157634e487b7160e01b600052601160045260246000fd5b500190565b600181811c908216806200027b57607f821691505b602082108114156200029d57634e487b7160e01b600052602260045260246000fd5b50919050565b6108c880620002b36000396000f3fe608060405234801561001057600080fd5b50600436106100a45760003560e01c806306fdde03146100a9578063095ea7b3146100c757806318160ddd146100ea57806323b872dd146100fc578063313ce5671461010f578063395093511461011e57806370a082311461013157806395d89b411461015a57806397d63f9314610162578063a457c2d71461016b578063a9059cbb1461017e578063dd62ed3e14610191575b600080fd5b6100b16101ca565b6040516100be9190610705565b60405180910390f35b6100da6100d5366004610776565b61025c565b60405190151581526020016100be565b6002545b6040519081526020016100be565b6100da61010a3660046107a0565b610272565b604051601281526020016100be565b6100da61012c366004610776565b610321565b6100ee61013f3660046107dc565b6001600160a01b031660009081526020819052604090205490565b6100b161035d565b6100ee60055481565b6100da610179366004610776565b61036c565b6100da61018c366004610776565b610405565b6100ee61019f3660046107fe565b6001600160a01b03918216600090815260016020908152604080832093909416825291909152205490565b6060600380546101d990610831565b80601f016020809104026020016040519081016040528092919081815260200182805461020590610831565b80156102525780601f1061022757610100808354040283529160200191610252565b820191906000526020600020905b81548152906001019060200180831161023557829003601f168201915b5050505050905090565b6000610269338484610412565b50600192915050565b600061027f848484610536565b6001600160a01b0384166000908152600160209081526040808320338452909152902054828110156103095760405162461bcd60e51b815260206004820152602860248201527f45524332303a207472616e7366657220616d6f756e74206578636565647320616044820152676c6c6f77616e636560c01b60648201526084015b60405180910390fd5b6103168533858403610412565b506001949350505050565b3360008181526001602090815260408083206001600160a01b0387168452909152812054909161026991859061035890869061086c565b610412565b6060600480546101d990610831565b3360009081526001602090815260408083206001600160a01b0386168452909152812054828110156103ee5760405162461bcd60e51b815260206004820152602560248201527f45524332303a2064656372656173656420616c6c6f77616e63652062656c6f77604482015264207a65726f60d81b6064820152608401610300565b6103fb3385858403610412565b5060019392505050565b6000610269338484610536565b6001600160a01b0383166104745760405162461bcd60e51b8152602060048201526024808201527f45524332303a20617070726f76652066726f6d20746865207a65726f206164646044820152637265737360e01b6064820152608401610300565b6001600160a01b0382166104d55760405162461bcd60e51b815260206004820152602260248201527f45524332303a20617070726f766520746f20746865207a65726f206164647265604482015261737360f01b6064820152608401610300565b6001600160a01b0383811660008181526001602090815260408083209487168084529482529182902085905590518481527f8c5be1e5ebec7d5bd14f71427d1e84f3dd0314c0f7b2291e5b200ac8c7c3b925910160405180910390a3505050565b6001600160a01b03831661059a5760405162461bcd60e51b815260206004820152602560248201527f45524332303a207472616e736665722066726f6d20746865207a65726f206164604482015264647265737360d81b6064820152608401610300565b6001600160a01b0382166105fc5760405162461bcd60e51b815260206004820152602360248201527f45524332303a207472616e7366657220746f20746865207a65726f206164647260448201526265737360e81b6064820152608401610300565b6001600160a01b038316600090815260208190526040902054818110156106745760405162461bcd60e51b815260206004820152602660248201527f45524332303a207472616e7366657220616d6f756e7420657863656564732062604482015265616c616e636560d01b6064820152608401610300565b6001600160a01b038085166000908152602081905260408082208585039055918516815290812080548492906106ab90849061086c565b92505081905550826001600160a01b0316846001600160a01b03167fddf252ad1be2c89b69c2b068fc378daa952ba7f163c4a11628f55a4df523b3ef846040516106f791815260200190565b60405180910390a350505050565b600060208083528351808285015260005b8181101561073257858101830151858201604001528201610716565b81811115610744576000604083870101525b50601f01601f1916929092016040019392505050565b80356001600160a01b038116811461077157600080fd5b919050565b6000806040838503121561078957600080fd5b6107928361075a565b946020939093013593505050565b6000806000606084860312156107b557600080fd5b6107be8461075a565b92506107cc6020850161075a565b9150604084013590509250925092565b6000602082840312156107ee57600080fd5b6107f78261075a565b9392505050565b6000806040838503121561081157600080fd5b61081a8361075a565b91506108286020840161075a565b90509250929050565b600181811c9082168061084557607f821691505b6020821081141561086657634e487b7160e01b600052602260045260246000fd5b50919050565b6000821982111561088d57634e487b7160e01b600052601160045260246000fd5b50019056fea26469706673582212209490bb116eb5d1dfea605eb20f39e63b70f1d4033ae66e3ef0cb7cc4fcdabcab64736f6c634300080c0033",
  "linkReferences": {},
  "deployedLinkReferences": {}
}