{
  "_format": "hh-sol-artifact-1",
  "contractName": "YieldFarming",
  "sourceName": "contracts/LPFarming.sol",
  "abi": [
    {
      "inputs": [
        {
          "internalType": "address",
          "name": "_token",
          "type": "address"
        },
        {
          "internalType": "uint256",
          "name": "_rewardPerBlock",
          "type": "uint256"
        },
        {
          "internalType": "address",
          "name": "_factoryContract",
          "type": "address"
        }
      ],
      "stateMutability": "nonpayable",
      "type": "constructor"
    },
    {
      "inputs": [
        {
          "internalType": "address",
          "name": "_lpToken",
          "type": "address"
        },
        {
          "internalType": "uint256",
          "name": "_lpRewardProportion",
          "type": "uint256"
        }
      ],
      "name": "addLPToken",
      "outputs": [],
      "stateMutability": "nonpayable",
      "type": "function"
    },
    {
      "inputs": [
        {
          "internalType": "address",
          "name": "",
          "type": "address"
        }
      ],
      "name": "balances",
      "outputs": [
        {
          "internalType": "uint256",
          "name": "",
          "type": "uint256"
        }
      ],
      "stateMutability": "view",
      "type": "function"
    },
    {
      "inputs": [
        {
          "internalType": "address",
          "name": "_lpToken",
          "type": "address"
        },
        {
          "internalType": "uint256",
          "name": "_amount",
          "type": "uint256"
        }
      ],
      "name": "depositLP",
      "outputs": [],
      "stateMutability": "nonpayable",
      "type": "function"
    },
    {
      "inputs": [],
      "name": "factoryContract",
      "outputs": [
        {
          "internalType": "address",
          "name": "",
          "type": "address"
        }
      ],
      "stateMutability": "view",
      "type": "function"
    },
    {
      "inputs": [
        {
          "internalType": "address",
          "name": "_lpToken",
          "type": "address"
        }
      ],
      "name": "getLPBalance",
      "outputs": [
        {
          "internalType": "uint256",
          "name": "",
          "type": "uint256"
        }
      ],
      "stateMutability": "view",
      "type": "function"
    },
    {
      "inputs": [],
      "name": "getReward",
      "outputs": [],
      "stateMutability": "nonpayable",
      "type": "function"
    },
    {
      "inputs": [
        {
          "internalType": "address",
          "name": "",
          "type": "address"
        }
      ],
      "name": "isLPToken",
      "outputs": [
        {
          "internalType": "bool",
          "name": "",
          "type": "bool"
        }
      ],
      "stateMutability": "view",
      "type": "function"
    },
    {
      "inputs": [],
      "name": "lastUpdateBlock",
      "outputs": [
        {
          "internalType": "uint256",
          "name": "",
          "type": "uint256"
        }
      ],
      "stateMutability": "view",
      "type": "function"
    },
    {
      "inputs": [
        {
          "internalType": "address",
          "name": "",
          "type": "address"
        }
      ],
      "name": "lpBalances",
      "outputs": [
        {
          "internalType": "uint256",
          "name": "",
          "type": "uint256"
        }
      ],
      "stateMutability": "view",
      "type": "function"
    },
    {
      "inputs": [
        {
          "internalType": "address",
          "name": "",
          "type": "address"
        }
      ],
      "name": "lpRewardProportions",
      "outputs": [
        {
          "internalType": "uint256",
          "name": "",
          "type": "uint256"
        }
      ],
      "stateMutability": "view",
      "type": "function"
    },
    {
      "inputs": [
        {
          "internalType": "uint256",
          "name": "",
          "type": "uint256"
        }
      ],
      "name": "lpTokenList",
      "outputs": [
        {
          "internalType": "address",
          "name": "",
          "type": "address"
        }
      ],
      "stateMutability": "view",
      "type": "function"
    },
    {
      "inputs": [],
      "name": "owner",
      "outputs": [
        {
          "internalType": "address",
          "name": "",
          "type": "address"
        }
      ],
      "stateMutability": "view",
      "type": "function"
    },
    {
      "inputs": [],
      "name": "rewardPerBlock",
      "outputs": [
        {
          "internalType": "uint256",
          "name": "",
          "type": "uint256"
        }
      ],
      "stateMutability": "view",
      "type": "function"
    },
    {
      "inputs": [],
      "name": "token",
      "outputs": [
        {
          "internalType": "address",
          "name": "",
          "type": "address"
        }
      ],
      "stateMutability": "view",
      "type": "function"
    },
    {
      "inputs": [],
      "name": "totalRewards",
      "outputs": [
        {
          "internalType": "uint256",
          "name": "",
          "type": "uint256"
        }
      ],
      "stateMutability": "view",
      "type": "function"
    },
    {
      "inputs": [
        {
          "internalType": "address",
          "name": "_lpToken",
          "type": "address"
        },
        {
          "internalType": "uint256",
          "name": "_amount",
          "type": "uint256"
        }
      ],
      "name": "withdrawLP",
      "outputs": [],
      "stateMutability": "nonpayable",
      "type": "function"
    }
  ],
  "bytecode": "0x608060405234801561001057600080fd5b50604051610b38380380610b3883398101604081905261002f9161008c565b600080546001600160a01b039485166001600160a01b03199182161790915560019290925560098054831633179055600a80549190931691161790556100c8565b80516001600160a01b038116811461008757600080fd5b919050565b6000806000606084860312156100a157600080fd5b6100aa84610070565b9250602084015191506100bf60408501610070565b90509250925092565b610a61806100d76000396000f3fe608060405234801561001057600080fd5b50600436106100d05760003560e01c80630b65092d146100d55780630e15561a1461010857806327e235e3146101115780633d18b91214610131578063445509281461013b57806347823a031461014e5780636497587a146101615780638ae39cac146101945780638da5cb5b1461019d578063979c4631146101c8578063a218141b146101db578063b534ec5c146101e4578063cfea08fe146101f7578063d2258beb14610217578063de11c94a14610239578063fc0c546a1461024c575b600080fd5b6100f56100e3366004610873565b60056020526000908152604090205481565b6040519081526020015b60405180910390f35b6100f560025481565b6100f561011f366004610873565b60046020526000908152604090205481565b61013961025f565b005b610139610149366004610895565b61037a565b61013961015c366004610895565b61047a565b61018461016f366004610873565b60066020526000908152604090205460ff1681565b60405190151581526020016100ff565b6100f560015481565b6009546101b0906001600160a01b031681565b6040516001600160a01b0390911681526020016100ff565b6101b06101d63660046108bf565b6105b6565b6100f560035481565b6101396101f2366004610895565b6105e0565b6100f5610205366004610873565b60076020526000908152604090205481565b6100f5610225366004610873565b503360009081526005602052604090205490565b600a546101b0906001600160a01b031681565b6000546101b0906001600160a01b031681565b61026761072a565b6000670de0b6b3a764000060015460035461028291906108ee565b60025461028f919061090d565b336000908152600460205260409020546102a991906108ee565b6102b39190610924565b9050600081116103015760405162461bcd60e51b81526020600482015260146024820152734e6f207265776172647320617661696c61626c6560601b60448201526064015b60405180910390fd5b60005460405163a9059cbb60e01b81526001600160a01b039091169063a9059cbb906103339033908590600401610946565b6020604051808303816000875af1158015610352573d6000803e3d6000fd5b505050506040513d601f19601f82011682018060405250810190610376919061095f565b5050565b6001600160a01b03821660009081526006602052604090205460ff166103b25760405162461bcd60e51b81526004016102f890610981565b600081116103d25760405162461bcd60e51b81526004016102f8906109ab565b6103da61072a565b6040516323b872dd60e01b8152336004820152306024820152604481018290526001600160a01b038316906323b872dd906064016020604051808303816000875af115801561042d573d6000803e3d6000fd5b505050506040513d601f19601f82011682018060405250810190610451919061095f565b5033600090815260056020526040812080548392906104719084906109e2565b90915550505050565b6009546001600160a01b031633146104e55760405162461bcd60e51b815260206004820152602860248201527f4f6e6c792074686520636f6e7472616374206f776e65722063616e20616464206044820152674c50546f6b656e7360c01b60648201526084016102f8565b6001600160a01b03821660009081526006602052604090205460ff16156105465760405162461bcd60e51b81526020600482015260156024820152741314151bdad95b88185b1c9958591e481859191959605a1b60448201526064016102f8565b6001600160a01b039091166000818152600660209081526040808320805460ff191660019081179091556008805491820190557ff3f7a9fe364faab93b216da50a3214154f22a0a2b415b23a84c8169e8b636ee30180546001600160a01b03191685179055928252600790522055565b600881815481106105c657600080fd5b6000918252602090912001546001600160a01b0316905081565b6001600160a01b03821660009081526006602052604090205460ff166106185760405162461bcd60e51b81526004016102f890610981565b600081116106385760405162461bcd60e51b81526004016102f8906109ab565b61064061072a565b336000908152600560205260409020548111156106995760405162461bcd60e51b8152602060048201526017602482015276496e73756666696369656e74204c502062616c616e636560481b60448201526064016102f8565b60405163a9059cbb60e01b81526001600160a01b0383169063a9059cbb906106c79033908590600401610946565b6020604051808303816000875af11580156106e6573d6000803e3d6000fd5b505050506040513d601f19601f8201168201806040525081019061070a919061095f565b50336000908152600560205260408120805483929061047190849061090d565b600354439060009061073c908361090d565b905080156103765760006001548261075491906108ee565b9050806002600082825461076891906109e2565b9091555050600383905560005b60085481101561085157600060088281548110610794576107946109fa565b60009182526020808320909101546001600160a01b0316808352600790915260408220549092506064906107c890866108ee565b6107d29190610924565b6001600160a01b038316600090815260056020526040902054909150670de0b6b3a7640000906108039083906108ee565b61080d9190610924565b6001600160a01b038316600090815260046020526040812080549091906108359084906109e2565b925050819055505050808061084990610a10565b915050610775565b50505050565b80356001600160a01b038116811461086e57600080fd5b919050565b60006020828403121561088557600080fd5b61088e82610857565b9392505050565b600080604083850312156108a857600080fd5b6108b183610857565b946020939093013593505050565b6000602082840312156108d157600080fd5b5035919050565b634e487b7160e01b600052601160045260246000fd5b6000816000190483118215151615610908576109086108d8565b500290565b60008282101561091f5761091f6108d8565b500390565b60008261094157634e487b7160e01b600052601260045260246000fd5b500490565b6001600160a01b03929092168252602082015260400190565b60006020828403121561097157600080fd5b8151801515811461088e57600080fd5b60208082526010908201526f24b73b30b634b2102628103a37b5b2b760811b604082015260600190565b6020808252601d908201527f416d6f756e74206d7573742062652067726561746572207468616e2030000000604082015260600190565b600082198211156109f5576109f56108d8565b500190565b634e487b7160e01b600052603260045260246000fd5b6000600019821415610a2457610a246108d8565b506001019056fea2646970667358221220c8a2acecdfb951b2943f76e8f7941bf183cb73c4438f2765ae0abb7fc7824fa564736f6c634300080c0033",
  "linkReferences": {},
  "deployedLinkReferences": {}
}